S010000050726F6A656374312E737265630C
S11300000C9481000C949E000C949E000C949E0011
S11300100C9480050C943A050C949E000C949E005C
S11300200C949E000C949E000C949E000C949E00D4
S11300300C949E000C949E000C94D5050C94BA0567
S11300400C949E000C949E000C949E000C949E00B4
S11300500C949E000C949E000C949E000C949E00A4
S11300600C949E000C949E004A044C044C044C04D2
S11300704C044C044C044C044C044C044C044C04FC
S11300804C044C044C044C044C044C044C044C04EC
S113009042044C044C044C044C044C044C044C04E6
S11300A04C044C044C044C044C044C044C044C04CC
S11300B04C044C0444044C044C044C044C044C04C4
S11300C046044C044C0448044C044C044C044C04B6
S11300D03E044C044C044C044C044C044C044C04AA
S11300E04C044C044C044C044C044C044C044C048C
S11300F04C044C044E044C044C044C044C044C047A
S1130100400411241FBECFEFD8E0DEBFCDBF14E002
S1130110A0E0B1E0EEE8F2E102C005900D92A8394A
S1130120B107D9F724E0A8E9B4E001C01D92A43BCB
S1130130B207E1F70E9437050C9445090C940000BE
S11301400F93CF93DF9302E023E84FEA60E080E06F
S11301500E947C03C0E0D0E004C08FEF0E94B9028B
S11301602196C03C8AE5D807C4F302E02DE64FEAA5
S113017064E680E00E947C03C0E0D0E004C080E03C
S11301800E94B9022196C03E86E0D807C4F3DF91ED
S1130190CF910F9108950F93CF93DF93EAE9F4E0A1
S11301A084E190E0918380838AE590E09383828365
S11301B002E023E64DE16AE584E10E947C03C0E0AD
S11301C0D0E004C080E00E94B9022196C436D10573
S11301D0CCF3DF91CF910F91089580E090E016C0A9
S11301E042E3489F9001499F300D11242C553F4F05
S11301F0FC01EE0FFF1FEE0FFF1FE256FB4F318392
S113020020832AE530E033832283019683309105ED
S11302103CF3089524EA30E0FC01318320832AE58D
S113022030E033832283089520919A0430919B0413
S1130230A901465F5F4F6417750794F4AB01465FED
S11302405F4F241735077CF420919C0430919D0462
S1130250265F3F4F821793074CF080E090E00895AB
S113026080E090E0089580E090E0089581E090E0DF
S11302700895EF92FF920F93CF93DF937C01EAE905
S1130280F4E06281808129E0260F49E0480F02E012
S11302900E947C03C0E0D0E004C08FEF0E94B9024A
S11302A02196C436D105CCF38BE490E090939D0461
S11302B080939C048FE1E816F10434F08AE590E021
S11302C090939D0480939C04EAE9F4E06281808128
S11302D029E0260F49E0480F02E00E947C03C0E0B9
S11302E0D0E004C080E00E94B9022196C436D10552
S11302F0CCF3DF91CF910F91FF90EF900895AF92DF
S1130300BF92CF92EF920F93CF93DF93CDB7DEB727
S11303102C970FB6F894DEBF0FBECDBF8091980422
S1130320909199049F938F9382E591E09F938F938B
S1130330CE0101965C019F938F930E945B066894A3
S1130340CC24C1F8EE24EA9400E022E04CE065E518
S1130350C5010E940D04809198049091990401961E
S113036090939904809398040F900F900F900F909E
S11303700F900F902C960FB6F894DEBF0FBECDBF32
S1130380DF91CF910F91EF90CF90BF90AF900895F0
S11303901092B1041092B0041092B3041092B204FB
S11303A00E94A0000E94CB000E94ED000E947F01E9
S11303B00895CF92EF920F931F93CF93DF93CDB70E
S11303C0DEB72A970FB6F894DEBF0FBECDBF02E0AA
S11303D023E84FEA60E080E00E947C0300E010E044
S11303E005C08FEF0E94B9020F5F1F4F003C8AE5E2
S11303F01807BCF381E090E09093B1048093B004BB
S11304008AE0E5E5F1E0DE01119601900D928A950E
S1130410E1F76894CC24C1F8EE24EA9400E022E0E9
S11304204CE063E2CE0101960E940D042A960FB6B9
S1130430F894DEBF0FBECDBFDF91CF911F910F9116
S1130440EF90CF900895EF92FF920F93CF93DF93A5
S1130450E12CF12C7DC0F701EE0FFF1FEE0FFF1F03
S1130460E256FB4F808191818B3A91055CF0F70154
S1130470EE0FFF1FEE0FFF1FE256FB4F0197918314
S1130480808363C0F701EE0FFF1FEE0FFF1FE256DC
S1130490FB4F628129E0260F49E0480F02E00E94E9
S11304A07C03C0E0D0E004C08FEF0E94B902219623
S11304B0C436D105CCF3F701EE0FFF1FEE0FFF1F7B
S11304C0E256FB4F80819181892B59F40E947F0170
S11304D0C701880F991F880F991F82569B4F0E944E
S11304E00A01F701EE0FFF1FEE0FFF1FE256FB4F4D
S11304F0C081D1812197D183C08360817181828140
S113050093810E941401892B31F00E94D90188B192
S1130510826088B922C0F701EE0FFF1FEE0FFF1FA4
S1130520E256FB4F628129E0260F4C2F475F02E021
S11305308C2F0E947C03C0E0D0E004C080EE0E94B7
S1130540B9022196C436D105CCF38FEFE81AF80A24
S113055083E0E816F1040CF47ECFDF91CF910F9184
S1130560FF90EF90089584B18C6284B980E58CBDCE
S1130570089595B19B7F95B98EBD0DB407FEFDCF4F
S113058085B1846085B908958F929F92AF92BF928E
S1130590EF92FF920F931F93CF93DF937C018B0114
S11305A0812C912C540116C08BB184608BB9E40169
S11305B0CC0FDD1FCE0DDF1D89810E94B902888119
S11305C00E94B9028BB18B7F8BB98FEF881A980A7E
S11305D0A80AB80AC801A0E0B0E088169906AA06DD
S11305E0BB0610F3DF91CF911F910F91FF90EF9015
S11305F0BF90AF909F908F900895CF93DF93CDB726
S1130600DEB7C654D1090FB6F894DEBF0FBECDBF16
S11306108AB18C608AB90E94B30286E4E0E0F1E01A
S1130620DE01119601900D928A95E1F72FEF85EA8C
S11306309EE0215080409040E1F700C000008BB163
S11306401BB82FE789EA93E0215080409040E1F7FE
S113065000C0000085B1846085B92FE789EA93E082
S1130660215080409040E1F700C000008BB18460CD
S11306708BB92FE789EA93E0215080409040E1F75D
S113068000C000008BB188608BB92FE789EA93E042
S1130690215080409040E1F700C0000062E070E02B
S11306A0CE0101960E94C4022FE789EA93E021500B
S11306B080409040E1F700C000006AE070E0CE01A5
S11306C005960E94C4022FE789EA93E021508040F6
S11306D09040E1F700C0000067E170E0CE01499668
S11306E00E94C402CA5BDF4F0FB6F894DEBF0FBE90
S11306F0CDBFDF91CF9108950F93CF93DF93CDB703
S1130700DEB72C970FB6F894DEBF0FBECDBF9CE0CA
S1130710E6E4F1E0DE01119601900D929A95E1F77D
S11307200230B1F1033009F44EC0013089F090E099
S113073092619E838D8350E0556158874F8370E0AA
S113074073617A87698730E036613C872B8755C0AF
S1130750E3E0F8E1FC83EB83E3E8F0E0DF01A81BCE
S1130760B109CD0192619E838D83E41BF109F5618A
S1130770F887EF838FEA90E0AC01461B510953617F
S11307805A874987821B910996619C878B8735C05C
S1130790E5E0F8E1FC83EB83E3E8F0E0DF01A61B8E
S11307A0B109BD0172617E836D83E21BF109F561BC
S11307B0F887EF8390E093619A87898750E05661C8
S11307C05C874B871AC0E3E0F8E1FC83EB8370E0BD
S11307D072617E836D8330E0356138872F832FEA21
S11307E030E0B901681B7109CB0193619A8789874D
S11307F0241B310936613C872B8766E070E0CE010B
S113080001960E94C4022C960FB6F894DEBF0FBE68
S1130810CDBFDF91CF910F9108952F923F924F92C8
S11308205F926F927F928F929F92AF92BF92CF927C
S1130830DF92EF92FF920F931F93CF93DF93CDB785
S1130840DEB728970FB6F894DEBF0FBECDBF1C01EC
S1130850862F4B83522EF02ECE82F10140811982D5
S1130860A3C04B37E0F050E0FA01E05BF109ED344E
S1130870F10590F4EC5CFF4F0C9455064FE70FC064
S113088041E80DC042E80BC043E809C044E807C092
S113089045E805C046E803C04FE301C040E84052C4
S11308A04C83952D990F950D292F220F280F2A83FC
S11308B0252D220F220F220F250DFB812F0F2150F2
S11308C04A8141500E816F2F0E947C032C81822F1C
S11308D090E0FC01EE0FFF1FEE0FFF1FEE0FFF1F56
S11308E0FD83EC83812C912C52C0EC81FD81E80DB9
S11308F0F91DE15AFE4F4080F8E08F16910408F08C
S1130900412CAA24A394B12C3AC0252D30E0388779
S11309102F8301E010E005C08E2D0E94B9020F5F05
S11309201F4F8F81988580179107B4F76894CC2462
S1130930C2F8D12C1FC0842D90E00C2C02C09595D8
S113094087950A94E2F780FF02C00F2D01C00E2D97
S113095066246394712C06C0802F0E94B9029FEF15
S1130960691A790AEF81F885E615F705ACF7F1E025
S1130970CF1AD108DD20FCF62FEFA21AB20A852D7A
S113098090E08A159B0508F63FEF831A930A89E0E5
S11309908816910408F4A9CF99819F5F9983F10186
S11309A0E90FF11D40818A8141115BCF28960FB672
S11309B0F894DEBF0FBECDBFDF91CF911F910F9191
S11309C0FF90EF90DF90CF90BF90AF909F908F906B
S11309D07F906F905F904F903F902F9008958AB1D1
S11309E081608AB987B18F7D87B9089587B18E6197
S11309F087B908958AB18D7F8AB98BB182608BB92A
S1130A007894E8E6F0E0808184608083ADE6B0E02D
S1130A108C9182608C93808182608083ECE6F0E02C
S1130A20808180628083EEE6F0E080818260808352
S1130A308AEF87BD81E088BD84B5826084BD84B5BA
S1130A408E7F84BD85B5877F85BD85B5836085BD73
S1130A5085B58B7F85BD08950E94EF040E94FD0239
S1130A600E94F6040E94C8010E94FA0408950E949C
S1130A702C05FFCF1F920F920FB60F9211240F90E7
S1130A800FBE0F901F901895AF92BF92CF92EF9226
S1130A900F93CF93DF93CDB7DEB72C970FB6F894AF
S1130AA0DEBF0FBECDBF9F938F9382E591E09F93EE
S1130AB08F93CE0101965C019F938F930E945B06F6
S1130AC06894CC24C1F8EE24EA9400E022E04AE2DF
S1130AD065E5C5010E940D040F900F900F900F90D3
S1130AE00F900F902C960FB6F894DEBF0FBECDBFBB
S1130AF0DF91CF910F91EF90CF90BF90AF90089579
S1130B001F920F920FB60F9211242F933F934F937E
S1130B105F936F937F938F939F93AF93BF93EF9361
S1130B20FF93EEE6F0E0908184E089278083808162
S1130B3082FD0FC088B1806188B986B590E00E94BB
S1130B4044058091AE049091AF041092AF041092CA
S1130B50AE04FF91EF91BF91AF919F918F917F91DF
S1130B606F915F914F913F912F910F900FBE0F9016
S1130B701F9018951F920F920FB60F9211248F9306
S1130B809F938091AE049091AF0401969093AF042B
S1130B908093AE048091AE049091AF049F918F91A5
S1130BA00F900FBE0F901F9018951F920F920FB6C3
S1130BB00F9211242F933F934F935F936F937F93DF
S1130BC08F939F93AF93BF93EF93FF93499915C06E
S1130BD08091AD048F5F8093AD048091AD04843621
S1130BE089F41092AD0481E090E09093B304809373
S1130BF0B2048BB181608BB905C08BB18E7F8BB988
S1130C001092AD048091B0049091B104892B41F508
S1130C108091AC048931F1F48091B2049091B304D1
S1130C20892BA1F08091AB0490E00E94390180915E
S1130C30AB048F5F8093AB048091AB04843231F4B6
S1130C401092B3041092B2041092AB040E942302D7
S1130C501092AC048091AC048F5F8093AC0414C0F8
S1130C608091AA048F3F59F488B18D7F88B988B1E7
S1130C708F7E88B9499908C00E94C80105C0809137
S1130C80AA048F5F8093AA04FF91EF91BF91AF9163
S1130C909F918F917F916F915F914F913F912F9190
S1130CA00F900FBE0F901F901895EE0FFF1F059029
S1130CB0F491E02D0994AEE0B0E0E1E6F6E00C94A6
S1130CC01C090D891E8986E08C831A8309838FEFA2
S1130CD09FE79E838D83AE01475E5F4F6F89788D5A
S1130CE0CE0101960E947D06EF81F885E00FF11F89
S1130CF010822E96E4E00C943809ABE0B0E0E3E80F
S1130D00F6E00C940E096C017B018A01FC01178248
S1130D101682838181FFCCC1CE0101963C01F6018C
S1130D209381F70193FD859193FF81917F0188233E
S1130D3009F4BAC1853239F493FD859193FF819109
S1130D407F01853229F4B60190E00E947408E7CF50
S1130D50912C212C312CFFE1F315D8F08B3279F052
S1130D6038F4803279F08332A1F4232D20611DC040
S1130D708D3261F0803369F4232D216016C0832DF8
S1130D808260382EE32DE4603E2E2AC0F32DF860F5
S1130D901DC037FC2DC020ED280F2A3040F08E32C4
S1130DA0B9F436FC81C1232D2064322E19C036FEDD
S1130DB006C08AE0989E200D1124922E11C0EAE00C
S1130DC02E9E200D1124222EF32DF0623F2E08C0FA
S1130DD08C3621F4832D8068382E02C0883641F485
S1130DE0F70193FD859193FF81917F018111B3CF29
S1130DF0982F9F7D9554933028F40C5F1F4F9FE3E9
S1130E0099830DC0833631F0833771F0833509F04F
S1130E1059C021C0F801808189830E5F1F4F882447
S1130E208394912C530113C02801F2E04F0E511CFE
S1130E30F801A080B18036FE03C0692D70E002C0C5
S1130E406FEF7FEFC5010E9469084C018201F32D09
S1130E50FF773F2E16C0280122E0420E511CF801F4
S1130E60A080B18036FE03C0692D70E002C06FEF30
S1130E707FEFC5010E945E084C01F32DF0683F2E00
S1130E80820133FC1BC0822D90E088169906B0F4D1
S1130E90B60180E290E00E9474082A94F4CFF50130
S1130EA037FC859137FE81915F01B60190E00E9485
S1130EB0740821102A9421E0821A91088114910463
S1130EC071F7E8C0843611F0893641F5F80137FE30
S1130ED007C060817181828193810C5F1F4F08C0BC
S1130EE060817181072E000C880B990B0E5F1F4FD8
S1130EF0F32DFF763F2E97FF09C09095809570954E
S1130F0061957F4F8F4F9F4FF0683F2E2AE030E06E
S1130F10A3010E94B008882E861845C0853731F495
S1130F20232D2F7EB22E2AE030E025C0932D997F09
S1130F30B92E8F36C1F018F4883579F0B5C08037F2
S1130F4019F0883721F0B0C0E92FE061BE2EB4FE5D
S1130F500DC0FB2DF460BF2E09C034FE0AC0292F3A
S1130F602660B22E06C028E030E005C020E130E063
S1130F7002C020E132E0F801B7FE07C06081718150
S1130F80828193810C5F1F4F06C06081718180E074
S1130F9090E00E5F1F4FA3010E94B008882E8618B0
S1130FA0FB2DFF773F2E36FE0DC0232D2E7FA22E64
S1130FB0891458F434FE0BC032FC09C0832D8E7E94
S1130FC0A82E05C0B82CA32C03C0B82C01C0B92C82
S1130FD0A4FE0FC0FE01E80DF11D8081803321F4D1
S1130FE09A2D997EA92E09C0A2FE06C0B394B3948B
S1130FF004C08A2D867809F0B394A3FC11C0A0FE26
S113100006C0B21488F4280C922C9B180EC0B2149B
S113101060F4B60180E290E00E947408B394F7CFC4
S1131020B21418F42B1802C0982C212CA4FE10C062
S1131030B60180E390E00E947408A2FE17C0A1FCF0
S113104003C088E790E002C088E590E0B6010CC0D8
S11310508A2D867859F0A1FE02C08BE201C080E29D
S1131060A7FC8DE2B60190E00E947408891438F45C
S1131070B60180E390E00E9474089A94F7CF8A94B2
S1131080F301E80DF11D8081B60190E00E9474081F
S11310908110F5CF222009F442CEB60180E290E01F
S11310A00E9474082A94F6CFF6018681978102C0C3
S11310B08FEF9FEF2B96E2E10C942A09FC01059037
S11310C0615070400110D8F7809590958E0F9F1F46
S11310D00895FC016150704001900110D8F780958B
S11310E090958E0F9F1F08950F931F93CF93DF93B7
S11310F0FB01238121FD03C08FEF9FEF2CC022FF52
S113110016C046815781248135814217530744F420
S1131110A081B1819D012F5F3F4F318320838C9348
S1131120268137812F5F3F4F3783268314C08B017D
S1131130EC01FB010084F185E02D0995892BE1F692
S1131140D80116968D919C911797019617969C93AA
S11311508E931697CE01DF91CF911F910F91089531
S1131160FA01AA27283051F1203181F1E8946F93D4
S11311706E7F6E5F7F4F8F4F9F4FAF4FB1E03ED07A
S1131180B4E03CD0670F781F891F9A1FA11D680F18
S1131190791F8A1F911DA11D6A0F711D811D911D4B
S11311A0A11D20D009F468943F912AE0269F1124C0
S11311B03019305D3193DEF6CF010895462F477024
S11311C0405D4193B3E00FD0C9F7F6CF462F4F707F
S11311D0405D4A3318F0495D31FD4052419302D0DD
S11311E0A9F7EACFB4E0A695979587957795679583
S11311F0BA95C9F700976105710508959B01AC0183
S11312000A2E06945795479537952795BA95C9F7A9
S1131210620F731F841F951FA01D08952F923F9284
S11312204F925F926F927F928F929F92AF92BF92F2
S1131230CF92DF92EF92FF920F931F93CF93DF939E
S1131240CDB7DEB7CA1BDB0B0FB6F894DEBF0FBEFB
S1131250CDBF09942A88398848885F846E847D8448
S11312608C849B84AA84B984C884DF80EE80FD804A
S11312700C811B81AA81B981CE0FD11D0FB6F894C0
S1111280DEBF0FBECDBFED010895F894FFCF81
S113128EFDFDFDFD00EF04EE041BFEFEFEFE90EFE1
S113129E044A1F7F04EE064390EF83090008AF0B48
S11312AE000A00050006000700EF0CEE90EF800028
S11312BEB0EF024900EF017F81E102E276E283E1C1
S11312CE018090EF000008EF0018001200150013C3
S11312DE001625640047616D65204F766572000027
S11312EE00000000000000040E0E04040004001BA5
S11312FE1B120000000000000A1F0A0A1F0A000841
S113130E0E100C021C040019190204081313000811
S113131E14140815120D000C0C0800000000000433
S113132E080808080804000804040404040800005B
S113133E0A0E1F0E0A00000004041F04040000001D
S113134E000000000C0C080000001F00000000004C
S113135E000000000C0C0000010204081000000E36
S113136E11131519110E00040C040404040E000EBE
S113137E11010608101F000E11010E01110E0002BC
S113138E060A121F0202001F10101E01110E000683
S113139E08101E11110E001F010204080808000E89
S11313AE11110E11110E000E11110F01020C00007D
S11313BE000C0C000C0C0000000C0C000C0C0802B1
S11313CE0408100804020000001F00001F0000089B
S11313DE040201020408000E110106040004000EAA
S11313EE11171517100E000E11111F111111001ED9
S11313FE11111E11111E000E11101010110E001ECF
S113140E11111111111E001F10101E10101F001F9C
S113141E10101E101010000E11101711110F0011C4
S113142E11111F111111000E04040404040E000105
S113143E01010111110E00111214181412110010D1
S113144E10101010101F00111B1511111111001185
S113145E191513111111000E11111111110E001E77
S113146E11111E101010000E11111115120D001E67
S113147E11111E121111000E11100E01110E001F6A
S113148E040404040404001111111111110E0011AD
S113149E111111110A04001111151515150A001157
S11314AE110A040A1111001111110A040404001E78
S11314BE02040810101E000E08080808080E00008A
S11314CE100804020100000E02020202020E0004C1
S11314DE0A110000000000000000000000001F0CB4
S11314EE0C04000000000000000E010F110F00108C
S11314FE101E1111111E0000000E1110110E00010C
S113150E010F1111110F0000000E111F100E000615
S113151E08081E0808080000000F11110F010E1014
S113152E101C12121212000400040404040400021B
S113153E0006020202120C101012141814120004E7
S113154E0404040404060000001A15151111000009
S113155E001C121212120000000E1111110E0000C6
S113156E001E1111111E1000000F1111110F010098
S113157E00160908081C0000000E100E010E0000D3
S113158E081E08080A04000000121212160A0000AF
S113159E001111110A040000001111151F0A000098
S11315AE0012120C12120000001212120E04180075
S11315BE001E020C101E0006080818080806000477
S11315CE040404040404000C02020302020C0000CE
S11315DE000000000000000A000E010F110F000AA7
S11315EE000E1111110E000A00121212160A000A30
S11315FE0E111F111111000A0E111111110E000AF4
S113160E11111111110E000C12121C12121C1006C3
S10B161E0909060000000000A8
S9030000FC
