S010000050726F6A656374312E737265630C
S11300000C9490000C94AD000C94AD000C94AD00D5
S11300100C9480060C94D5050C94AD000C94D20677
S11300200C94AD000C94AD000C94AD000C94AD0098
S11300300C94AD000C94AD000C9400070C94AD002E
S11300400C94AD000C94AD000C94AD000C94AD0078
S11300500C94AD000C94AD000C94AD000C94AD0068
S11300600C94AD000C94AD00CA04CC04CC04CC04B4
S1130070CC04CC04CC04CC04CC04CC04CC04CC04FC
S1130080CC04CC04CC04CC04CC04CC04CC04CC04EC
S1130090C204CC04CC04CC04CC04CC04CC04CC04E6
S11300A0CC04CC04CC04CC04CC04CC04CC04CC04CC
S11300B0CC04CC04C404CC04CC04CC04CC04CC04C4
S11300C0C604CC04CC04C804CC04CC04CC04CC04B6
S11300D0BE04CC04CC04CC04CC04CC04CC04CC04AA
S11300E0CC04CC04CC04CC04CC04CC04CC04CC048C
S11300F0CC04CC04CE04CC04CC04CC04CC04CC047A
S1130100C00405A84CCDB2D44EB93836A9020C505F
S1130110B9918688083CA6AAAA2ABE000000803F9E
S113012011241FBECFEFD8E0DEBFCDBF14E0A0E0A6
S1130130B1E0ECEDFBE102C005900D92AA3AB107E3
S1130140D9F724E0AAEAB4E001C01D92AA3CB207A0
S1130150E1F70E94D2050C94EC0D0C9400000F936F
S1130160CF93DF9302E023E84FEA60E080E00E944F
S1130170FC03C0E0D0E004C08FEF0E943903219655
S1130180C03C8AE5D807C4F302E02DE64FEA64E6F2
S113019080E00E94FC03C0E0D0E004C080E00E9444
S11301A039032196C03E86E0D807C4F3DF91CF918E
S11301B00F9108950F93CF93DF93ECEAF4E084E179
S11301C090E0918380838AE590E09383828302E0C8
S11301D023E64DE16AE584E10E94FC03C0E0D0E03F
S11301E004C080E00E9439032196C436D105CCF3C3
S11301F0DF91CF910F91089580E090E016C042E323
S1130200489F9001499F300D11242C553F4FFC010C
S1130210EE0FFF1FEE0FFF1FE055FB4F31832083CE
S11302202AE530E0338322830196833091053CF341
S11302300895CF93DF93EC010E949E0A6FE070E073
S11302400E94150A8C559F4F998388838AE590E014
S11302509B838A83DF91CF9108952091AC043091E0
S1130260AD04A901465F5F4F6417750794F4AB01B1
S1130270465F5F4F241735077CF42091AE0430911C
S1130280AF04265F3F4F821793074CF080E090E065
S1130290089580E090E0089580E090E0089581E082
S11302A090E00895AF92BF92CF92EF920F93CF93C5
S11302B0DF93CDB7DEB72C970FB6F894DEBF0FBE31
S11302C0CDBF2091AA043091AB04ABEABAEA0E94F4
S11302D02F0A969587959093C7048093C6048091BE
S11302E0AA049091AB049F938F9388E591E09F9328
S11302F08F93CE0101965C019F938F930E94AE0A67
S11303006894CC24C1F8EE24EA9400E022E04CE0A6
S113031065E5C5010E948D048091AA049091AB0407
S113032001969093AB048093AA040F900F900F90C2
S11303300F900F900F902C960FB6F894DEBF0FBE5F
S1130340CDBFDF91CF910F91EF90CF90BF90AF9041
S113035008951092C5041092C4041092C904109216
S1130360C8041092C7041092C6040E94AF000E94F1
S1130370DA000E94FC000E9452010895CF92EF928D
S11303800F931F93CF93DF93CDB7DEB72A970FB6A2
S1130390F894DEBF0FBECDBF02E023E84FEA60E071
S11303A080E00E94FC0300E010E005C08FEF0E9493
S11303B039030F5F1F4F003C8AE51807BCF381E047
S11303C090E09093C5048093C4041092AB041092FF
S11303D0AA048AE0EBE5F1E0DE01119601900D92AA
S11303E08A95E1F76894CC24C1F8EE24EA9400E0FD
S11303F022E04CE063E2CE0101960E948D042A962D
S11304000FB6F894DEBF0FBECDBFDF91CF911F9121
S11304100F91EF90CF900895EF92FF920F93CF93A7
S1130420DF93E12CF12C7DC0F701EE0FFF1FEE0FDF
S1130430FF1FE055FB4F80819181803B91055CF06B
S1130440F701EE0FFF1FEE0FFF1FE055FB4F019763
S11304509183808363C0F701EE0FFF1FEE0FFF1F30
S1130460E055FB4F628129E0260F49E0480F02E086
S11304700E94FC03C0E0D0E004C08FEF0E94390367
S11304802196C436D105CCF3F701EE0FFF1FEE0F12
S1130490FF1FE055FB4F80819181892B59F40E9405
S11304A05201C701880F991F880F991F80559B4FD0
S11304B00E941901F701EE0FFF1FEE0FFF1FE05519
S11304C0FB4FC081D1812197D183C0836081718129
S11304D0828193810E942D01892B31F088B1826041
S11304E088B90E94BE0122C0F701EE0FFF1FEE0F74
S11304F0FF1FE055FB4F628129E0260F4C2F475F19
S113050002E08C2F0E94FC03C0E0D0E004C080EE27
S11305100E9439032196C436D105CCF38FEFE81A33
S1130520F80A83E0E816F1040CF47ECFDF91CF9152
S11305300F91FF90EF900895BC01990F880B990BD0
S11305400E948C0828E532ED4BEC50E40E94E2074F
S11305500E94850920E030E040EA51E40E94180935
S11305600E945408CB0108958A309105BCF480910F
S11305700401909105010E949C022AE530E0A90142
S1130580481B590BCA0120910401309105012F5FCA
S11305903F4F309305012093040108958A3191055A
S11305A04CF481E090E0909305018093040186E48B
S11305B090E0089584979CF4809104019091050142
S11305C00E949C028A5B9F4F209104013091050197
S11305D02F5F3F4F3093050120930401089581E07C
S11305E090E090930501809304018AE590E00895DA
S11305F0EF92FF920F93CF93DF937C01ECEAF4E048
S11306006281808129E0260F49E0480F02E00E94C0
S1130610FC03C0E0D0E004C08FEF0E9439032196B0
S1130620C436D105CCF3C7010E94B402682FECEAAA
S1130630F4E082839383808129E0260F49E0480F08
S113064002E00E94FC03C0E0D0E004C080E00E940D
S113065039032196C436D105CCF3DF91CF910F91A4
S1130660FF90EF90089584B18C6284B980E58CBDCD
S1130670089595B19B7F95B98EBD0DB407FEFDCF4E
S113068085B1846085B908958F929F92AF92BF928D
S1130690EF92FF920F931F93CF93DF937C018B0113
S11306A0812C912C540116C08BB184608BB9E40168
S11306B0CC0FDD1FCE0DDF1D89810E943903888197
S11306C00E9439038BB18B7F8BB98FEF881A980AFC
S11306D0A80AB80AC801A0E0B0E088169906AA06DC
S11306E0BB0610F3DF91CF911F910F91FF90EF9014
S11306F0BF90AF909F908F900895CF93DF93CDB725
S1130700DEB7C654D1090FB6F894DEBF0FBECDBF15
S11307108AB18C608AB90E94330386E4E6E0F1E092
S1130720DE01119601900D928A95E1F72FEF85EA8B
S11307309EE0215080409040E1F700C000008BB162
S11307401BB82FE789EA93E0215080409040E1F7FD
S113075000C0000085B1846085B92FE789EA93E081
S1130760215080409040E1F700C000008BB18460CC
S11307708BB92FE789EA93E0215080409040E1F75C
S113078000C000008BB188608BB92FE789EA93E041
S1130790215080409040E1F700C0000062E070E02A
S11307A0CE0101960E9444032FE789EA93E0215089
S11307B080409040E1F700C000006AE070E0CE01A4
S11307C005960E9444032FE789EA93E02150804074
S11307D09040E1F700C0000067E170E0CE01499667
S11307E00E944403CA5BDF4F0FB6F894DEBF0FBE0E
S11307F0CDBFDF91CF9108950F93CF93DF93CDB702
S1130800DEB72C970FB6F894DEBF0FBECDBF9CE0C9
S1130810ECE4F1E0DE01119601900D929A95E1F776
S11308200230B1F1033009F44EC0013089F090E098
S113083092619E838D8350E0556158874F8370E0A9
S113084073617A87698730E036613C872B8755C0AE
S1130850E3E0F8E1FC83EB83E3E8F0E0DF01A81BCD
S1130860B109CD0192619E838D83E41BF109F56189
S1130870F887EF838FEA90E0AC01461B510953617E
S11308805A874987821B910996619C878B8735C05B
S1130890E5E0F8E1FC83EB83E3E8F0E0DF01A61B8D
S11308A0B109BD0172617E836D83E21BF109F561BB
S11308B0F887EF8390E093619A87898750E05661C7
S11308C05C874B871AC0E3E0F8E1FC83EB8370E0BC
S11308D072617E836D8330E0356138872F832FEA20
S11308E030E0B901681B7109CB0193619A8789874C
S11308F0241B310936613C872B8766E070E0CE010A
S113090001960E9444032C960FB6F894DEBF0FBEE6
S1130910CDBFDF91CF910F9108952F923F924F92C7
S11309205F926F927F928F929F92AF92BF92CF927B
S1130930DF92EF92FF920F931F93CF93DF93CDB784
S1130940DEB728970FB6F894DEBF0FBECDBF1C01EB
S1130950862F4B83522EF02ECE82F10140811982D4
S1130960A3C04B37E0F050E0FA01E05BF109ED344D
S1130970F10590F4EC5CFF4F0C94290A4FE70FC08B
S113098041E80DC042E80BC043E809C044E807C091
S113099045E805C046E803C04FE301C040E84052C3
S11309A04C83952D990F950D292F220F280F2A83FB
S11309B0252D220F220F220F250DFB812F0F2150F1
S11309C04A8141500E816F2F0E94FC032C81822F9B
S11309D090E0FC01EE0FFF1FEE0FFF1FEE0FFF1F55
S11309E0FD83EC83812C912C52C0EC81FD81E80DB8
S11309F0F91DEB59FE4F4080F8E08F16910408F082
S1130A00412CAA24A394B12C3AC0252D30E0388778
S1130A102F8301E010E005C08E2D0E9439030F5F83
S1130A201F4F8F81988580179107B4F76894CC2461
S1130A30C2F8D12C1FC0842D90E00C2C02C09595D7
S1130A4087950A94E2F780FF02C00F2D01C00E2D96
S1130A5066246394712C06C0802F0E9439039FEF93
S1130A60691A790AEF81F885E615F705ACF7F1E024
S1130A70CF1AD108DD20FCF62FEFA21AB20A852D79
S1130A8090E08A159B0508F63FEF831A930A89E0E4
S1130A908816910408F4A9CF99819F5F9983F10185
S1130AA0E90FF11D40818A8141115BCF28960FB671
S1130AB0F894DEBF0FBECDBFDF91CF911F910F9190
S1130AC0FF90EF90DF90CF90BF90AF909F908F906A
S1130AD07F906F905F904F903F902F9008958AB1D0
S1130AE081608AB987B18F7D87B9E8E6F0E08081BB
S1130AF082608083ECE6F0E08081806280830895E8
S1130B008AB18D7F8AB98BB182608BB9E8E6F0E057
S1130B10808184608083EDE6F0E080818260808360
S1130B200895EEE6F0E08081826080838AEF87BDDD
S1130B3084B5826084BD84B58E7F84BD85B5877F8E
S1130B4085BD85B5836085BD85B58B7F85BDE0E7B3
S1130B50F0E080818260808384E78093B300E0EBDF
S1130B60F0E080818260808380818E7F8083E1EBEE
S1130B70F0E08081877F808380818E7F8083808185
S1130B808B7F8083089578940E946F050E947D0373
S1130B900E94A9010E9480050E94910587B18E617F
S1130BA087B908950E94C305FFCF1F920F920FB615
S1130BB00F9211248F939F9381E090E09093C90446
S1130BC08093C8049F918F910F900FBE0F901F9038
S1130BD01895AF92BF92CF92EF920F931F93CF933A
S1130BE0DF93CDB7DEB72C970FB6F894DEBF0FBEF8
S1130BF0CDBFB82EA92E02E02CE34AEA6AE285E5CD
S1130C000E94FC0300E010E005C08FEF0E9439034E
S1130C100F5F1F4F0B3686E01807BCF3AF92BF92ED
S1130C2088E591E09F938F93CE0101965C019F9399
S1130C308F930E94AE0A6894CC24C1F8EE24EA94FF
S1130C4000E022E04AE265E5C5010E948D040F90B0
S1130C500F900F900F900F900F902C960FB6F89462
S1130C60DEBF0FBECDBFDF91CF911F910F91EF90EB
S1130C70CF90BF90AF900895CF92EF920F931F93B0
S1130C80CF93DF93CDB7DEB72C970FB6F894DEBFC2
S1130C900FBECDBF02E023E84FEA60E080E00E948F
S1130CA0FC0300E010E005C08FEF0E9439030F5FE2
S1130CB01F4F003C8AE51807BCF38CE0EDE9F4E033
S1130CC0DE01119601900D928A95E1F76894CC2487
S1130CD0C1F8EE24EA9400E022E04CE063E2CE01A5
S1130CE001960E948D042C960FB6F894DEBF0FBEB9
S1130CF0CDBFDF91CF911F910F91EF90CF900895C9
S1130D001F920F920FB60F9211242F933F934F937C
S1130D105F936F937F938F939F93AF93BF93EF935F
S1130D20FF93359B05C01092C3041092C20429C0DE
S1130D30E1EBF0E080818D7F80838091C20490910B
S1130D40C3040E94E9058091C2049091C304C29730
S1130D5020F488B1806188B910C088B18F7E88B9C9
S1130D608091C0048F5F8093C0048091C00486305A
S1130D7020F00E943C061092C0041092C30410920A
S1130D80C204FF91EF91BF91AF919F918F917F9199
S1130D906F915F914F913F912F910F900FBE0F90E4
S1130DA01F9018951F920F920FB60F9211248F93D4
S1130DB09F938091C104882329F08BB18E7F8BB9D6
S1130DC01092C1048091C2049091C304019690933F
S1130DD0C3048093C2049F918F910F900FBE0F9014
S1130DE01F90189581E08093C1041092B2008BB1DA
S1130DF081608BB9E1EBF0E08081826080830895AB
S1130E001F920F920FB60F9211242F933F934F937B
S1130E105F936F937F938F939F93AF93BF93EF935E
S1130E20FF938091C4049091C504892B91F520917E
S1130E30BF0430E04091C6045091C70489E190E0BA
S1130E40841B950B28173907F1F48091C8049091FD
S1130E50C904892BA1F08091BE0490E00E94F8029D
S1130E608091BE048F5F8093BE048091BE0486325D
S1130E7031F41092C9041092C8041092BE040E9466
S1130E800C021092BF048091BF048F5F8093BF0453
S1130E9022C08091BD048F3FC9F488B18D7F88B989
S1130EA08091BC04883021F40E94F2061092BC04A4
S1130EB08091BC048F5F8093BC04499907C00E9451
S1130EC0A901E1EBF0E080818D7F80838091BD04F6
S1130ED08F5F8093BD04FF91EF91BF91AF919F917C
S1130EE08F917F916F915F914F913F912F910F90CF
S1130EF00FBE0F901F9018950E94D00838F00E94E2
S1130F00D70820F039F49F3F19F426F40C94CD0847
S1130F100EF4E095E7FB0C94C708E92F0E94EF0854
S1130F2058F3BA17620773078407950720F079F41A
S1130F30A6F50C9411090EF4E0950B2EBA2FA02DF2
S1130F400B01B90190010C01CA01A0011124FF2772
S1130F50591B99F0593F50F4503E68F11A16F0406D
S1130F60A22F232F342F4427585FF3CF469537956C
S1130F702795A795F0405395C9F77EF41F16BA0B31
S1130F80620B730B840BBAF09150A1F0FF0FBB1FDF
S1130F90661F771F881FC2F70EC0BA0F621F731F28
S1130FA0841F48F4879577956795B795F7959E3F85
S1130FB008F0B0CF9395880F08F09927EE0F979516
S1130FC0879508950E94F6070C94DE080E94D708BE
S1130FD058F00E94D00840F029F45F3F29F00C94A7
S1130FE0C70851110C9412090C94CD080E94EF0803
S1130FF068F39923B1F3552391F3951B550BBB2744
S1131000AA2762177307840738F09F5F5F4F220F88
S1131010331F441FAA1FA9F335D00E2E3AF0E0E87F
S113102032D091505040E695001CCAF72BD0FE2FC9
S113103029D0660F771F881FBB1F2617370748075D
S1131040AB07B0E809F0BB0B802DBF01FF27935815
S11310505F4F3AF09E3F510578F00C94C7080C940A
S113106012095F3FE4F3983ED4F38695779567952C
S1131070B795F7959F5FC9F7880F911D969587954A
S113108097F90895E1E0660F771F881FBB1F621769
S113109073078407BA0720F0621B730B840BBA0B27
S11310A0EE1F88F7E09508950E945B086894B111DB
S11310B00C94120908950E94F70888F09F5798F03D
S11310C0B92F9927B751B0F0E1F0660F771F881F49
S11310D0991F1AF0BA95C9F714C0B13091F00E9463
S11310E01109B1E008950C941109672F782F88270E
S11310F0B85F39F0B93FCCF3869577956795B3958A
S1131100D9F73EF490958095709561957F4F8F4FF8
S11311109F4F0895E89409C097FB3EF490958095FD
S1131120709561957F4F8F4F9F4F9923A9F0F92FA9
S113113096E9BB279395F695879577956795B79527
S1131140F111F8CFFAF4BB0F11F460FF1BC06F5F0D
S11311507F4F8F4F9F4F16C0882311F096E911C01F
S1131160772321F09EE8872F762F05C0662371F040
S113117096E8862F70E060E02AF09A95660F771F54
S1131180881FDAF7880F9695879597F9089597F948
S11311909F6780E870E060E008959FEF80EC089519
S11311A000240A9416161706180609060895002442
S11311B00A9412161306140605060895092E0394BC
S11311C0000C11F4882352F0BB0F40F4BF2B11F430
S11311D060FF04C06F5F7F4F8F4F9F4F089557FD8F
S11311E09058440F551F59F05F3F71F04795880F91
S11311F097FB991F61F09F3F79F087950895121628
S113120013061406551FF2CF4695F1DF08C01616D3
S113121017061806991FF1CF869571056105089484
S11312200895E894BB2766277727CB0197F908959B
S11312300E942B090C94DE080E94D00838F00E940A
S1131240D70820F0952311F00C94C7080C94CD080E
S113125011240C9412090E94EF0870F3959FC1F3B6
S1131260950F50E0551F629FF001729FBB27F00D50
S1131270B11D639FAA27F00DB11DAA1F649F6627A5
S1131280B00DA11D661F829F2227B00DA11D621FF4
S1131290739FB00DA11D621F839FA00D611D221FAE
S11312A0749F3327A00D611D231F849F600D211D92
S11312B0822F762F6A2F11249F5750409AF0F1F015
S11312C088234AF0EE0FFF1FBB1F661F771F881F7E
S11312D091505040A9F79E3F510580F00C94C708E7
S11312E00C9412095F3FE4F3983ED4F38695779506
S11312F06795B795F795E7959F5FC1F7FE2B880F24
S1131300911D9695879597F908959F930E948F094B
S11313100F9007FCEE5F0C94B8090C94CD080E9462
S1131320F708D8F3E894E0E0BB279F57F0F02AEDE4
S11313303FE049EC06C0EE0FBB0F661F771F881F06
S113134028F0B23A62077307840728F0B25A620B96
S1131350730B840BE3959A9572F7803830F49A9561
S1131360BB0F661F771F881FD2F790480C94CE09D5
S1131370EF93E0FF07C0A2EA2AED3FE049EC5FEB00
S11313800E948D070E94DE080F90039401FC905880
S1131390E2E0F1E00C94DA099F3F31F0915020F43F
S11313A0879577956795B795880F911D969587953D
S11313B097F908959F938F937F936F93FF93EF9380
S11313C09B01AC010E941809EF91FF910E94EE0964
S11313D02F913F914F915F910C941809DF93CF9314
S11313E01F930F93FF92EF92DF927B018C0168941D
S11313F006C0DA2EEF010E942B09FE01E894A591A4
S11314002591359145915591A6F3EF010E948D07E1
S1131410FE019701A801DA9469F7DF90EF90FF903D
S11314200F911F91CF91DF91089597FB072E16F42A
S1131430009407D077FD09D00E943E0A07FC05D02E
S11314403EF4909581959F4F0895709561957F4FD7
S11314500895EE0FFF1F0590F491E02D0994A29FCB
S1131460B001B39FC001A39F700D811D1124911D74
S1131470B29F700D811D1124911D0895AA1BBB1BE1
S113148051E107C0AA1FBB1FA617B70710F0A61B80
S1131490B70B881F991F5A95A9F780959095BC01A1
S11314A0CD0108958F929F92AF92BF92CF92DF9217
S11314B0EF92FF92CF93DF93EC01688179818A8167
S11314C09B81611571058105910521F464E279ED33
S11314D08BE597E02DE133EF41E050E00E94610D90
S11314E049015A019B01AC01A7EAB1E40E94800DB5
S11314F06B017C01ACEEB4EFA50194010E948E0D4A
S1131500DC01CB018C0D9D1DAE1DBF1DB7FF03C0BB
S11315100197A109B04888839983AA83BB839F77E5
S1131520DF91CF91FF90EF90DF90CF90BF90AF907D
S11315309F908F9008950E94520A089580E091E050
S11315400E94520A0895A0E0B0E0809300019093B5
S11315500101A0930201B09303010895AEE0B0E04D
S1131560E4EBFAE00C94A10D0D891E8986E08C83CE
S11315701A8309838FEF9FE79E838D83AE01475EB5
S11315805F4F6F89788DCE0101960E94D00AEF815A
S1131590F885E00FF11F10822E96E4E00C94BD0D47
S11315A0ABE0B0E0E6EDFAE00C94930D6C017B0146
S11315B08A01FC0117821682838181FFCCC1CE018E
S11315C001963C01F6019381F70193FD859193FF08
S11315D081917F01882309F4BAC1853239F493FDDE
S11315E0859193FF81917F01853229F4B60190E0C2
S11315F00E94C70CE7CF912C212C312CFFE1F3156D
S1131600D8F08B3279F038F4803279F08332A1F457
S1131610232D20611DC08D3261F0803369F4232DA8
S1131620216016C0832D8260382EE32DE4603E2EA7
S11316302AC0F32DF8601DC037FC2DC020ED280F03
S11316402A3040F08E32B9F436FC81C1232D206457
S1131650322E19C036FE06C08AE0989E200D112451
S1131660922E11C0EAE02E9E200D1124222EF32D7D
S1131670F0623F2E08C08C3621F4832D8068382E0A
S113168002C0883641F4F70193FD859193FF81915F
S11316907F018111B3CF982F9F7D9554933028F407
S11316A00C5F1F4F9FE399830DC0833631F083375E
S11316B071F0833509F059C021C0F8018081898314
S11316C00E5F1F4F88248394912C530113C028016B
S11316D0F2E04F0E511CF801A080B18036FE03C029
S11316E0692D70E002C06FEF7FEFC5010E94BC0C52
S11316F04C018201F32DFF773F2E16C0280122E012
S1131700420E511CF801A080B18036FE03C0692D41
S113171070E002C06FEF7FEFC5010E94B10C4C0175
S1131720F32DF0683F2E820133FC1BC0822D90E024
S113173088169906B0F4B60180E290E00E94C70CC6
S11317402A94F4CFF50137FC859137FE81915F012E
S1131750B60190E00E94C70C21102A9421E0821A5D
S113176091088114910471F7E8C0843611F0893628
S113177041F5F80137FE07C0608171818281938150
S11317800C5F1F4F08C060817181072E000C880B0D
S1131790990B0E5F1F4FF32DFF763F2E97FF09C065
S11317A090958095709561957F4F8F4F9F4FF0680E
S11317B03F2E2AE030E0A3010E94030D882E8618F4
S11317C045C0853731F4232D2F7EB22E2AE030E038
S11317D025C0932D997FB92E8F36C1F018F4883522
S11317E079F0B5C0803719F0883721F0B0C0E92FFF
S11317F0E061BE2EB4FE0DC0FB2DF460BF2E09C007
S113180034FE0AC0292F2660B22E06C028E030E03C
S113181005C020E130E002C020E132E0F801B7FE6B
S113182007C060817181828193810C5F1F4F06C064
S11318306081718180E090E00E5F1F4FA3010E94E0
S1131840030D882E8618FB2DFF773F2E36FE0DC024
S1131850232D2E7FA22E891458F434FE0BC032FCA3
S113186009C0832D8E7EA82E05C0B82CA32C03C0DE
S1131870B82C01C0B92CA4FE0FC0FE01E80DF11D67
S11318808081803321F49A2D997EA92E09C0A2FE6D
S113189006C0B394B39404C08A2D867809F0B39437
S11318A0A3FC11C0A0FE06C0B21488F4280C922C2C
S11318B09B180EC0B21460F4B60180E290E00E945E
S11318C0C70CB394F7CFB21418F42B1802C0982C99
S11318D0212CA4FE10C0B60180E390E00E94C70C46
S11318E0A2FE17C0A1FC03C088E790E002C088E50F
S11318F090E0B6010CC08A2D867859F0A1FE02C092
S11319008BE201C080E2A7FC8DE2B60190E00E9468
S1131910C70C891438F4B60180E390E00E94C70C28
S11319209A94F7CF8A94F301E80DF11D8081B601F2
S113193090E00E94C70C8110F5CF222009F442CE1A
S1131940B60180E290E00E94C70C2A94F6CFF6011B
S11319508681978102C08FEF9FEF2B96E2E10C9472
S1131960AF0DFC010590615070400110D8F78095CF
S113197090958E0F9F1F0895FC0161507040019057
S11319800110D8F7809590958E0F9F1F08950F939F
S11319901F93CF93DF93FB01238121FD03C08FEFBE
S11319A09FEF2CC022FF16C04681578124813581C8
S11319B04217530744F4A081B1819D012F5F3F4F2B
S11319C0318320838C93268137812F5F3F4F378368
S11319D0268314C08B01EC01FB010084F185E02D0A
S11319E00995892BE1F6D80116968D919C9117974C
S11319F0019617969C938E931697CE01DF91CF9103
S1131A001F910F910895FA01AA27283051F120312E
S1131A1081F1E8946F936E7F6E5F7F4F8F4F9F4F7E
S1131A20AF4FB1E03ED0B4E03CD0670F781F891FC0
S1131A309A1FA11D680F791F8A1F911DA11D6A0F8E
S1131A40711D811D911DA11D20D009F468943F9141
S1131A502AE0269F11243019305D3193DEF6CF0140
S1131A600895462F4770405D4193B3E00FD0C9F706
S1131A70F6CF462F4F70405D4A3318F0495D31FD73
S1131A804052419302D0A9F7EACFB4E0A6959795C6
S1131A90879577956795BA95C9F70097610571059C
S1131AA008959B01AC010A2E0694579547953795E6
S1131AB02795BA95C9F7620F731F841F951FA01D40
S1131AC00895052E97FB1EF400940E94780D57FD8F
S1131AD007D00E94CA0D07FC03D04EF40C94780D75
S1131AE050954095309521953F4F4F4F5F4F089546
S1131AF090958095709561957F4F8F4F9F4F089576
S1131B000E942F0AA59F900DB49F900DA49F800D55
S1131B10911D11240895B7FF0C94800D0E94800D2F
S1131B20821B930B08952F923F924F925F926F9274
S1131B307F928F929F92AF92BF92CF92DF92EF9259
S1131B40FF920F931F93CF93DF93CDB7DEB7CA1BDA
S1131B50DB0B0FB6F894DEBF0FBECDBF09942A8805
S1131B60398848885F846E847D848C849B84AA84AD
S1131B70B984C884DF80EE80FD800C811B81AA813A
S1131B80B981CE0FD11D0FB6F894DEBF0FBECDBF05
S1131B90ED010895A1E21A2EAA1BBB1BFD010DC085
S1131BA0AA1FBB1FEE1FFF1FA217B307E407F50709
S1131BB020F0A21BB30BE40BF50B661F771F881FE5
S1131BC0991F1A9469F760957095809590959B017B
S10F1BD0AC01BD01CF010895F894FFCFD3
S1131BDC010000000100FDFDFDFD00EF04EE041BFF
S1131BECFEFEFEFE90EF044A1F7F04EE064390EFC8
S1131BFC83090008AF0B000A00050006000700EF7C
S1131C0C0CEE90EF8000B0EF024900EF017F81E110
S1131C1C02E276E283E1018090EF000008EF001805
S1131C2C001200150013001625640047616D652031
S1131C3C4F766572000000000000000000040E0ED8
S1131C4C04040004001B1B120000000000000A1F07
S1131C5C0A0A1F0A00080E100C021C0400191902AF
S1131C6C04081313000814140815120D000C0C08A6
S1131C7C0000000000040808080808040008040414
S1131C8C0404040800000A0E1F0E0A0000000404D9
S1131C9C1F0404000000000000000C0C08000000ED
S1131CAC1F0000000000000000000C0C00000102EA
S1131CBC04081000000E11131519110E00040C0465
S1131CCC0404040E000E11010608101F000E11016D
S1131CDC0E01110E0002060A121F0202001F101040
S1131CEC1E01110E000608101E11110E001F010218
S1131CFC04080808000E11110E11110E000E11111A
S1131D0C0F01020C0000000C0C000C0C0000000C69
S1131D1C0C000C0C08020408100804020000001F3C
S1131D2C00001F000008040201020408000E110147
S1131D3C06040004000E11171517100E000E1111D5
S1131D4C1F111111001E11111E11111E000E111064
S1131D5C1010110E001E11111111111E001F101064
S1131D6C1E10101F001F10101E101010000E11104A
S1131D7C1711110F001111111F111111000E040470
S1131D8C0404040E000101010111110E00111214BE
S1131D9C18141211001010101010101F00111B1524
S1131DAC111111110011191513111111000E11112A
S1131DBC1111110E001E11111E101010000E111114
S1131DCC1115120D001E11111E121111000E1110FD
S1131DDC0E01110E001F040404040404001111115B
S1131DEC1111110E0011111111110A040011111508
S1131DFC1515150A0011110A040A111100111111FB
S1131E0C0A040404001E02040810101E000E080824
S1131E1C0808080E0000100804020100000E02025B
S1131E2C0202020E00040A1100000000000000006F
S1131E3C000000001F0C0C04000000000000000E49
S1131E4C010F110F0010101E1111111E0000000EB5
S1131E5C1110110E0001010F1111110F0000000ED1
S1131E6C111F100E000608081E0808080000000FB9
S1131E7C11110F010E10101C121212120004000486
S1131E8C0404040400020006020202120C101012D4
S1131E9C1418141200040404040404060000001AA8
S1131EAC151511110000001C121212120000000E64
S1131EBC1111110E0000001E1111111E1000000F43
S1131ECC1111110F010000160908081C0000000E66
S1131EDC100E010E0000081E08080A04000000126F
S1131EEC1212160A0000001111110A04000000114C
S1131EFC11151F0A00000012120C1212000000121D
S1131F0C12120E041800001E020C101E0006080803
S1131F1C180808060004040404040404000C020257
S1131F2C0302020C0000000000000000000A000E76
S1131F3C010F110F000A000E1111110E000A0012EC
S1131F4C1212160A000A0E111F111111000A0E1199
S1131F5C1111110E000A11111111110E000C121293
S1131F6C1C12121C100609090600000000534352EF
S10D1F7C45454E53415645520000FE
S9030000FC
