S010000050726F6A656374312E737265630C
S11300000C9434000C9451000C9451000C94510045
S11300100C9476030C945F030C9451000C945100DF
S11300200C9451000C9451000C9451000C94510008
S11300300C9451000C9451000C94BC030C94A50333
S11300400C9451000C9451000C9451000C945100E8
S11300500C9451000C9451000C9451000C945100D8
S11300600C9451000C94510011241FBECFEFD8E022
S1130070DEBFCDBF11E0A0E0B1E0EEE4F8E002C0E5
S113008005900D92A235B107D9F721E0A2E5B1E0C0
S113009001C01D92AB36B207E1F70E945C030C94D9
S11300A025040C9400000F93CF93DF9302E023E820
S11300B04FEA60E080E00E948302C0E0D0E004C028
S11300C08FEF0E94D2012196C03C8AE5D807C4F381
S11300D002E02DE64FEA64E680E00E948302C0E07D
S11300E0D0E004C080E00E94D2012196C03E86E0A8
S11300F0D807C4F3DF91CF910F9108950F93CF9355
S1130100DF93E2E5F1E084E190E0918380838AE586
S113011090E09383828302E023E64DE16AE584E183
S11301200E948302C0E0D0E004C080E00E94D201BB
S11301302196C436D105CCF3DF91CF910F91089568
S113014080E090E016C042E3489F9001499F300D43
S113015011242C553F4FFC01EE0FFF1FEE0FFF1F24
S1130160EA5AFE4F318320832AE530E03383228329
S11301700196833091053CF3089510926501109225
S1130180640110926301109262010E9453000E9464
S11301907E000E94A000089524EA30E0FC0131832F
S11301A020832AE530E0338322830895209152018D
S11301B030915301A901465F5F4F6417750794F4AA
S11301C0AB01465F5F4F241735077CF4209154013F
S11301D030915501265F3F4F821793074CF080E022
S11301E090E0089580E090E0089580E090E0089524
S11301F081E090E00895EF92FF920F93CF93DF9305
S1130200E12CF12C78C0F701EE0FFF1FEE0FFF1F5A
S1130210EA5AFE4F808191818B3A91055CF0F70197
S1130220EE0FFF1FEE0FFF1FEA5AFE4F0197918357
S113023080835EC0F701EE0FFF1FEE0FFF1FEA5A27
S1130240FE4F628129E0260F49E0480F02E00E9438
S11302508302C0E0D0E004C08FEF0E94D201219657
S1130260C436D105CCF3F701EE0FFF1FEE0FFF1FCD
S1130270EA5AFE4F80819181892B19F4CF010E94A3
S1130280CC00F701EE0FFF1FEE0FFF1FEA5AFE4FDF
S113029080819181019791838083608171818281C2
S11302A093810E94D600892B49F081E090E09093DD
S11302B065018093640188B1826088B9F701EE0F0B
S11302C0FF1FEE0FFF1FEA5AFE4F6281808129E073
S11302D0260F49E0480F02E00E948302C0E0D0E00C
S11302E004C080EE0E94D2012196C436D105CCF31D
S11302F08FEFE81AF80A83E0E816F1040CF483CFD0
S1130300DF91CF910F91FF90EF900895EF92FF92BC
S11303100F93CF93DF937C01E2E5F1E0628180816A
S113032029E0260F49E0480F02E00E948302C0E062
S1130330D0E004C08FEF0E94D2012196C436D105CB
S1130340CCF38BE490E090935501809354018FE1BA
S1130350E816F10434F08AE590E090935501809317
S11303605401E2E5F1E06281808129E0260F49E051
S1130370480F02E00E948302C0E0D0E004C080E0A5
S11303800E94D2012196C436D105CCF3DF91CF91DE
S11303900F91FF90EF90089584B18C6284B980E549
S11303A08CBD089595B19B7F95B98EBD0DB407FEA4
S11303B0FDCF85B1846085B908958F929F92AF92E5
S11303C0BF92EF92FF920F931F93CF93DF937C0121
S11303D08B01812C912C540116C08BB184608BB994
S11303E0E401CC0FDD1FCE0DDF1D89810E94D201F7
S11303F088810E94D2018BB18B7F8BB98FEF881AD1
S1130400980AA80AB80AC801A0E0B0E088169906BC
S1130410AA06BB0610F3DF91CF911F910F91FF90B5
S1130420EF90BF90AF909F908F900895CF93DF93FC
S1130430CDB7DEB7C654D1090FB6F894DEBF0FBEF0
S1130440CDBF8AB18C608AB90E94CC0186E4E0E019
S1130450F1E0DE01119601900D928A95E1F72FE506
S11304608AEE90E0215080409040E1F700C0000007
S11304708BB11BB88DE399E40197F1F700C000003C
S113048085B1846085B98DE399E40197F1F700C0E3
S113049000008BB184608BB98DE399E40197F1F787
S11304A000C000008BB188608BB98DE399E401979B
S11304B0F1F700C0000062E070E0CE0101960E94F6
S11304C0DD018DE399E40197F1F700C000006AE0D3
S11304D070E0CE0105960E94DD018DE399E4019759
S11304E0F1F700C0000067E170E0CE0149960E9478
S11304F0DD01CA5BDF4F0FB6F894DEBF0FBECDBF80
S1130500DF91CF9108950F93CF93DF93CDB7DEB7EB
S11305102C970FB6F894DEBF0FBECDBF9CE0E6E487
S1130520F1E0DE01119601900D929A95E1F7023007
S1130530B1F1033009F44EC0013089F090E09261CA
S11305409E838D8350E0556158874F8370E07361BB
S11305507A87698730E036613C872B8755C0E3E0B2
S1130560F8E1FC83EB83E3E8F0E0DF01A81BB109C9
S1130570CD0192619E838D83E41BF109F561F887B7
S1130580EF838FEA90E0AC01461B510953615A870F
S11305904987821B910996619C878B8735C0E5E06A
S11305A0F8E1FC83EB83E3E8F0E0DF01A61BB1098B
S11305B0BD0172617E836D83E21BF109F561F887E9
S11305C0EF8390E093619A87898750E056615C8756
S11305D04B871AC0E3E0F8E1FC83EB8370E07261BF
S11305E07E836D8330E0356138872F832FEA30E0D6
S11305F0B901681B7109CB0193619A878987241B10
S1130600310936613C872B8766E070E0CE010196A4
S11306100E94DD012C960FB6F894DEBF0FBECDBF4D
S1130620DF91CF910F9108958AB181608AB987B122
S11306308F7D87B9089587B18E6187B908958AB18E
S11306408D7F8AB98BB182608BB97894E8E6F0E04B
S1130650808184608083ADE6B0E08C9182608C936D
S1130660808182608083ECE6F0E080818062808318
S1130670EEE6F0E08081826080838AEF87BD81E0CE
S113068088BD84B5826084BD84B58E7F84BD85B504
S1130690877F85BD85B5836085BD85B58B7F85BD29
S11306A008950E9414030E9416020E941B030E94D4
S11306B0BD000E941F0308950E945103FFCF1F92A3
S11306C00F920FB60F9211248F939F9381E090E0C5
S11306D090936301809362018BB181608BB99F9188
S11306E08F910F900FBE0F901F9018951F920F922D
S11306F00FB60F9211242F938F939F93EF93FF9331
S1130700EEE6F0E0908184E089278083808182FD99
S11307100EC08091690190916A01880F991F880F1A
S1130720991F8434924018F488B1806188B980910B
S1130730690190916A01FF91EF919F918F912F919F
S11307400F900FBE0F901F9018951F920F920FB627
S11307500F9211248F939F938091690190916A0164
S1130760019690936A01809369019F918F910F90F4
S11307700FBE0F901F9018951F920F920FB60F92F5
S113078011242F933F934F935F936F937F938F9392
S11307909F93AF93BF93EF93FF93809164019091E4
S11307A06501892B59F580916801893109F50E9409
S11307B0FB008091620190916301892BB9F08BB1A8
S11307C08E7F8BB98091670190E00E9486018091B1
S11307D067018F5F8093670180916701843231F4F0
S11307E010926301109262011092670110926801E5
S11307F0809168018F5F8093680116C080916601C3
S11308008F3F69F488B18D7F88B988B18F7E88B9AC
S113081049990AC00E94BD008091660105C080917B
S113082066018F5F80936601FF91EF91BF91AF9155
S11308309F918F917F916F915F914F913F912F91F4
S11108400F900FBE0F901F901895F894FFCFE5
S113084EFDFDFDFD00EF04EE041BFEFEFEFE90EF2B
S113085E044A1F7F04EE064390EF83090008AF0B92
S113086E000A00050006000700EF0CEE90EF800072
S113087EB0EF024900EF017F81E102E276E283E10B
S113088E018090EF000008EF00180012001500130D
S105089E00163E
S9030000FC
