S010000050726F6A656374312E737265630C
S11300000C9490000C94AD000C94AD000C94AD00D5
S11300100C9442060C942E060C94AD000C94050727
S11300200C94AD000C94AD000C94AD000C94AD0098
S11300300C94AD000C94AD000C9433070C94AD00FB
S11300400C94AD000C94AD000C94AD000C94AD0078
S11300500C94AD000C94AD000C94AD000C94AD0068
S11300600C94AD000C94AD0023052505250525054C
S1130070250525052505250525052505250525052C
S1130080250525052505250525052505250525051C
S11300901B05250525052505250525052505250516
S11300A025052505250525052505250525052505FC
S11300B0250525051D0525052505250525052505F4
S11300C01F052505250521052505250525052505E6
S11300D017052505250525052505250525052505DA
S11300E025052505250525052505250525052505BC
S11300F025052505270525052505250525052505AA
S1130100190505A84CCDB2D44EB93836A9020C5005
S1130110B9918688083CA6AAAA2ABE000000803F9E
S113012011241FBECFEFD8E0DEBFCDBF14E0A0E0A6
S1130130B1E0E0EAFCE102C005900D92AC3CB107ED
S1130140D9F724E0ACECB4E001C01D92A13FB207A2
S1130150E1F70E942B060C944E0E0C9400000F93B2
S1130160CF93DF9302E023E84FEA60E080E00E944F
S11301705504C0E0D0E004C08FEF0E9492032196A2
S1130180C03C8AE5D807C4F302E02DE64FEA64E6F2
S113019080E00E945504C0E0D0E004C080E00E94EA
S11301A092032196C03E86E0D807C4F3DF91CF9135
S11301B00F9108950F93CF93DF93E0EDF4E084E182
S11301C090E0918380838AE590E09383828302E0C8
S11301D023E64DE16AE584E10E945504C0E0D0E0E5
S11301E004C080E00E9492032196C436D105CCF36A
S11301F0DF91CF910F91089580E090E016C042E323
S1130200489F9001499F300D11242C553F4FFC010C
S1130210EE0FFF1FEE0FFF1FEC52FB4F31832083C5
S11302202AE530E0338322830196833091053CF341
S113023008951092F0041092EF041092EE041092BC
S1130240ED040E94AF000E94DA000E94FC000895B1
S1130250CF93DF93EC010E94000B6FE070E00E94EB
S1130260770A8C559F4F998388838AE590E09B8316
S11302708A83DF91CF9108952091D0043091D104E5
S1130280A901465F5F4F6417750794F4AB01465F9D
S11302905F4F241735077CF42091D2043091D304A6
S11302A0265F3F4F821793074CF080E090E008955B
S11302B080E090E0089580E090E0089581E090E08F
S11302C00895AF92BF92CF92EF920F93CF93DF93A3
S11302D0CDB7DEB72C970FB6F894DEBF0FBECDBFF7
S11302E02091CC043091CD04ABEABAEA0E94910A81
S11302F0969587959093EE048093ED048091CC04B9
S11303009091CD049F938F938DE691E09F938F936B
S1130310CE0101965C019F938F930E94100B689409
S1130320CC24C1F8EE24EA9400E022E04CE065E538
S1130330C5010E94E6040F900F900F900F900F904C
S11303400F902C960FB6F894DEBF0FBECDBFDF9191
S1130350CF910F91EF90CF90BF90AF9008951092EE
S11303600701109206010E9419010E94610108957B
S1130370AF92BF92CF92EF920F931F93CF93DF93DD
S1130380CDB7DEB72A970FB6F894DEBF0FBECDBF48
S113039002E023E84FEA60E080E00E94550400E0B8
S11303A010E005C08FEF0E9492030F5F1F4F003CC7
S11303B02AE51207BCF38AE0EEE7F1E09E012F5F25
S11303C03F4F5901D90101900D928A95E1F7689444
S11303D0CC24C1F8EE24EA9400E022E04CE063E28D
S11303E0C5010E94E6048091CC049091CD049F93B2
S11303F08F9381E691E09F938F93BF92AF920E9477
S1130400100B21E04AE26CE2C5010E94E60420914F
S1130410CC043091CD048091CE049091CF040F9000
S11304200F900F900F900F900F908217930740F446
S11304308091CC049091CD049093CF048093CE040A
S11304408091CE049091CF049F938F9380E791E0A5
S11304509F938F93CE0101965C019F938F930E948B
S1130460100B6894CC24C1F8EE24EA9400E021E057
S113047046E46FE2C5010E94E60481E090E09093B7
S11304800701809306011092CD041092CC040F90C2
S11304900F900F900F900F900F902A960FB6F8942C
S11304A0DEBF0FBECDBFDF91CF911F910F91EF90B3
S11304B0CF90BF90AF900895EF92FF920F93CF9398
S11304C0DF93E12CF12C86C0F701EE0FFF1FEE0F36
S11304D0FF1FEC52FB4F80819181803B91055CF0C2
S11304E0F701EE0FFF1FEE0FFF1FEC52FB4F0197BA
S11304F0918380836CC0F701EE0FFF1FEE0FFF1F87
S1130500EC52FB4F628129E0260F49E0480F02E0DC
S11305100E945504C0E0D0E004C08FEF0E94920313
S11305202196C436D105CCF3F701EE0FFF1FEE0F71
S1130530FF1FEC52FB4F80819181892BA1F48091A4
S1130540CC049091CD0401969093CD048093CC0477
S11305500E946101C701880F991F880F991F8C524F
S11305609B4F0E942801F701EE0FFF1FEE0FFF1FA4
S1130570EC52FB4FC081D1812197D183C08360812C
S11305807181828193810E943C01892B31F088B171
S1130590826088B90E94B80122C0F701EE0FFF1FE4
S11305A0EE0FFF1FEC52FB4F628129E0260F4C2F08
S11305B0475F02E08C2F0E945504C0E0D0E004C0E5
S11305C080EE0E9492032196C436D105CCF38FEFBE
S11305D0E81AF80A83E0E816F1040CF475CFDF9109
S11305E0CF910F91FF90EF900895BC01990F880B64
S11305F0990B0E94EE0828E532ED4BEC50E40E9482
S113060044080E94E70920E030E040EA51E40E94F7
S11306107A090E94B608CB0108958A309105BCF48A
S113062080910401909105010E94F5022AE530E0D1
S1130630A901481B590BCA012091040130910501FD
S11306402F5F3F4F309305012093040108958A31B1
S113065091054CF481E090E09093050180930401AE
S113066086E490E0089584979CF48091040190912D
S113067005010E94F5028A5B9F4F2091040130918D
S113068005012F5F3F4F3093050120930401089526
S113069081E090E090930501809304018AE590E065
S11306A00895EF92FF920F93CF93DF937C01E0EDD7
S11306B0F4E06281808129E0260F49E0480F02E0DE
S11306C00E945504C0E0D0E004C08FEF0E94920362
S11306D02196C436D105CCF3C7010E940D03682FBF
S11306E0E0EDF4E082839383808129E0260F49E0E2
S11306F0480F02E00E945504C0E0D0E004C080E04E
S11307000E9492032196C436D105CCF3DF91CF9198
S11307100F91FF90EF90089584B18C6284B980E5C5
S11307208CBD089595B19B7F95B98EBD0DB407FE20
S1130730FDCF85B1846085B908958F929F92AF9261
S1130740BF92EF92FF920F931F93CF93DF937C019D
S11307508B01812C912C540116C08BB184608BB910
S1130760E401CC0FDD1FCE0DDF1D89810E949203B1
S113077088810E9492038BB18B7F8BB98FEF881A8B
S1130780980AA80AB80AC801A0E0B0E08816990639
S1130790AA06BB0610F3DF91CF911F910F91FF9032
S11307A0EF90BF90AF909F908F900895CF93DF9379
S11307B0CDB7DEB7C654D1090FB6F894DEBF0FBE6D
S11307C0CDBF8AB18C608AB90E948C0386E4E8E0CC
S11307D0F1E0DE01119601900D928A95E1F72FEF79
S11307E085EA9EE0215080409040E1F700C000007F
S11307F08BB11BB82FE789EA93E0215080409040E9
S1130800E1F700C0000085B1846085B92FE789EA6B
S113081093E0215080409040E1F700C000008BB18C
S113082084608BB92FE789EA93E02150804090409F
S1130830E1F700C000008BB188608BB92FE789EA2B
S113084093E0215080409040E1F700C0000062E056
S113085070E0CE0101960E949D032FE789EA93E0A0
S1130860215080409040E1F700C000006AE070E051
S1130870CE0105960E949D032FE789EA93E021505B
S113088080409040E1F700C0000067E170E0CE01D5
S113089049960E949D03CA5BDF4F0FB6F894DEBFF2
S11308A00FBECDBFDF91CF9108950F93CF93DF9308
S11308B0CDB7DEB72C970FB6F894DEBF0FBECDBF11
S11308C09CE0EEE4F1E0DE01119601900D929A9520
S11308D0E1F70230B1F1033009F44EC0013089F080
S11308E090E092619E838D8350E0556158874F83D9
S11308F070E073617A87698730E036613C872B87C3
S113090055C0E3E0F8E1FC83EB83E3E8F0E0DF01CA
S1130910A81BB109CD0192619E838D83E41BF1096B
S1130920F561F887EF838FEA90E0AC01461B51092B
S113093053615A874987821B910996619C878B87EB
S113094035C0E5E0F8E1FC83EB83E3E8F0E0DF01A8
S1130950A61BB109BD0172617E836D83E21BF1099F
S1130960F561F887EF8390E093619A87898750E077
S113097056615C874B871AC0E3E0F8E1FC83EB83A4
S113098070E072617E836D8330E0356138872F8338
S11309902FEA30E0B901681B7109CB0193619A8792
S11309A08987241B310936613C872B8766E070E018
S11309B0CE0101960E949D032C960FB6F894DEBFDB
S11309C00FBECDBFDF91CF910F9108952F923F922B
S11309D04F925F926F927F928F929F92AF92BF924B
S11309E0CF92DF92EF92FF920F931F93CF93DF93F7
S11309F0CDB7DEB728970FB6F894DEBF0FBECDBFD4
S1130A001C01862F4B83522EF02ECE82F1014081A1
S1130A101982A3C04B37E0F050E0FA01E05BF10922
S1130A20ED34F10590F4EC5CFF4F0C948B0A4FE726
S1130A300FC041E80DC042E80BC043E809C044E8D8
S1130A4007C045E805C046E803C04FE301C040E8DD
S1130A5040524C83952D990F950D292F220F280F65
S1130A602A83252D220F220F220F250DFB812F0F04
S1130A7021504A8141500E816F2F0E9455042C81D0
S1130A80822F90E0FC01EE0FFF1FEE0FFF1FEE0F11
S1130A90FF1FFD83EC83812C912C52C0EC81FD81DE
S1130AA0E80DF91DE857FE4F4080F8E08F169104D9
S1130AB008F0412CAA24A394B12C3AC0252D30E08F
S1130AC038872F8301E010E005C08E2D0E94920329
S1130AD00F5F1F4F8F81988580179107B4F7689433
S1130AE0CC24C2F8D12C1FC0842D90E00C2C02C061
S1130AF0959587950A94E2F780FF02C00F2D01C0F7
S1130B000E2D66246394712C06C0802F0E949203DC
S1130B109FEF691A790AEF81F885E615F705ACF7B6
S1130B20F1E0CF1AD108DD20FCF62FEFA21AB20AA9
S1130B30852D90E08A159B0508F63FEF831A930AEA
S1130B4089E08816910408F4A9CF99819F5F99835D
S1130B50F101E90FF11D40818A8141115BCF289693
S1130B600FB6F894DEBF0FBECDBFDF91CF911F91BA
S1130B700F91FF90EF90DF90CF90BF90AF909F9038
S1130B808F907F906F905F904F903F902F9008953B
S1130B908AB181608AB987B18F7D87B9E8E6F0E0D0
S1130BA0808182608083ECE6F0E0808180628083D3
S1130BB008958AB18D7F8AB98BB182608BB9E8E6DA
S1130BC0F0E0808184608083EDE6F0E080818260E3
S1130BD080830895EEE6F0E08081826080838AEF6E
S1130BE087BD84B5826084BD84B58E7F84BD85B5A0
S1130BF0877F85BD85B5836085BD85B58B7F85BDC4
S1130C00E0E7F0E080818260808384E78093B30032
S1130C10E0EBF0E080818260808380818E7F80833E
S1130C20E1EBF0E08081877F808380818E7F808309
S1130C3080818B7F8083089578940E94C8050E94E8
S1130C40D6030E9419010E94D9050E94EA0587B1C2
S1130C508E6187B908950E941C06FFCF1F920F92E0
S1130C600FB60F9211248F939F9381E090E090939D
S1130C70F0048093EF049F918F910F900FBE0F901B
S1130C801F9018951F920F920FB60F9211248F93F5
S1130C909F93EF93FF93359B05C01092EC04109241
S1130CA0EB042CC0E1EBF0E080818D7F80838091A8
S1130CB0EB049091EC048035910518F41092E9044A
S1130CC019C088B18F7E88B98091E7049091E804B7
S1130CD001969093E8048093E7048091E70490914F
S1130CE0E804069738F081E08093E9041092E80460
S1130CF01092E7041092EC041092EB04FF91EF9130
S1130D009F918F910F900FBE0F901F901895CF92C7
S1130D10EF92FF920F931F93CF93DF93CDB7DEB77C
S1130D2063970FB6F894DEBF0FBECDBF7C01019769
S1130D3099F402E023E84FEA60E080E00E94550461
S1130D4000E010E005C08FEF0E9492030F5F1F4F79
S1130D50003C3AE51307BCF387E0EAE5F1E0DE0185
S1130D60119601900D928A95E1F78CE0E0ECF4E0A5
S1130D70DE01189601900D928A95E1F79701ADEC8A
S1130D80BCEC0E94910AAC0156954795569547953F
S1130D909A01A3E9B4E20E94910A281B390B369503
S1130DA02795820F931F96958795969587959C0115
S1130DB0220F331F220F331F220F331FB901681B69
S1130DC0790B9A01261B370BE1E0F0E0EC0FFD1FD5
S1130DD0E20FF31F6894CC24C1F8EE24EA94008156
S1130DE022E04CE366E1CE0108960E94E604639695
S1130DF00FB6F894DEBF0FBECDBFDF91CF911F9128
S1130E000F91FF90EF90CF9008951F920F920FB61D
S1130E100F9211248F939F938091EA04882329F0E1
S1130E208BB18E7F8BB91092EA048091EB04909180
S1130E30EC0401969093EC048093EB049F918F91C2
S1130E400F900FBE0F901F90189581E08093EA04D5
S1130E501092B2008BB181608BB9E1EBF0E080813C
S1130E608260808308951F920F920FB60F9211240F
S1130E702F933F934F935F936F937F938F939F939E
S1130E80AF93BF93EF93FF93809106019091070175
S1130E90892B41F58091E6048F30F1F48091EF04C1
S1130EA09091F004892BA1F08091E50490E00E94D8
S1130EB051038091E5048F5F8093E5048091E504FC
S1130EC0863231F41092F0041092EF041092E5048B
S1130ED00E945C021092E6048091E6048F5F809386
S1130EE0E6045BC08091E4048F3F09F051C088B1EF
S1130EF08D7F88B98091E304883021F40E9425070E
S1130F001092E3048091E3048F5F8093E304809163
S1130F10E904882391F01092E2048091E004909116
S1130F20E10401969093E1048093E0048091E0044D
S1130F309091E1040E94870612C08091E20481111D
S1130F400AC00E94190181E08093E2041092E10436
S1130F501092E00404C01092E1041092E004499954
S1130F6017C01092E9041092E8041092E70410925A
S1130F70E1041092E0041092E5041092E40410924B
S1130F80E3040E94AF01E1EBF0E080818D7F808378
S1130F908091E4048F5F8093E404FF91EF91BF910B
S1130FA0AF919F918F917F916F915F914F913F91FD
S1130FB02F910F900FBE0F901F9018950E94320929
S1130FC038F00E94390920F039F49F3F19F426F4CF
S1130FD00C942F090EF4E095E7FB0C942909E92FF2
S1130FE00E94510958F3BA176207730784079507DB
S1130FF020F079F4A6F50C9473090EF4E0950B2E09
S1131000BA2FA02D0B01B90190010C01CA01A00156
S11310101124FF27591B99F0593F50F4503E68F1B1
S11310201A16F040A22F232F342F4427585FF3CFF2
S1131030469537952795A795F0405395C9F77EF4C3
S11310401F16BA0B620B730B840BBAF09150A1F00C
S1131050FF0FBB1F661F771F881FC2F70EC0BA0F92
S1131060621F731F841F48F4879577956795B7951A
S1131070F7959E3F08F0B0CF9395880F08F0992715
S1131080EE0F9795879508950E9458080C9440098F
S11310900E94390958F00E94320940F029F45F3F58
S11310A029F00C94290951110C9474090C942F09FA
S11310B00E94510968F39923B1F3552391F3951BC9
S11310C0550BBB27AA2762177307840738F09F5F65
S11310D05F4F220F331F441FAA1FA9F335D00E2ED2
S11310E03AF0E0E832D091505040E695001CCAF73F
S11310F02BD0FE2F29D0660F771F881FBB1F261702
S113110037074807AB07B0E809F0BB0B802DBF01D8
S1131110FF2793585F4F3AF09E3F510578F00C94A7
S113112029090C9474095F3FE4F3983ED4F386953F
S113113077956795B795F7959F5FC9F7880F911DC8
S11311409695879597F90895E1E0660F771F881FB4
S1131150BB1F621773078407BA0720F0621B730B67
S1131160840BBA0BEE1F88F7E09508950E94BD0822
S11311706894B1110C94740908950E94590988F077
S11311809F5798F0B92F9927B751B0F0E1F0660F47
S1131190771F881F991F1AF0BA95C9F714C0B13088
S11311A091F00E947309B1E008950C947309672FBC
S11311B0782F8827B85F39F0B93FCCF386957795B7
S11311C06795B395D9F73EF49095809570956195A0
S11311D07F4F8F4F9F4F0895E89409C097FB3EF4CB
S11311E090958095709561957F4F8F4F9F4F992370
S11311F0A9F0F92F96E9BB279395F69587957795EE
S11312006795B795F111F8CFFAF4BB0F11F460FFAD
S11312101BC06F5F7F4F8F4F9F4F16C0882311F005
S113122096E911C0772321F09EE8872F762F05C019
S1131230662371F096E8862F70E060E02AF09A95B4
S1131240660F771F881FDAF7880F9695879597F9A9
S1131250089597F99F6780E870E060E008959FEF34
S113126080EC089500240A94161617061806090639
S1131270089500240A941216130614060506089508
S1131280092E0394000C11F4882352F0BB0F40F490
S1131290BF2B11F460FF04C06F5F7F4F8F4F9F4FD0
S11312A0089557FD9058440F551F59F05F3F71F052
S11312B04795880F97FB991F61F09F3F79F08795B9
S11312C00895121613061406551FF2CF4695F1DF42
S11312D008C0161617061806991FF1CF86957105D2
S11312E0610508940895E894BB2766277727CB0106
S11312F097F908950E948D090C9440090E943209BF
S113130038F00E94390920F0952311F00C94290932
S11313100C942F0911240C9474090E94510970F340
S1131320959FC1F3950F50E0551F629FF001729F86
S1131330BB27F00DB11D639FAA27F00DB11DAA1F95
S1131340649F6627B00DA11D661F829F2227B00DE2
S1131350A11D621F739FB00DA11D621F839FA00D6D
S1131360611D221F749F3327A00D611D231F849FBD
S1131370600D211D822F762F6A2F11249F57504014
S11313809AF0F1F088234AF0EE0FFF1FBB1F661F8F
S1131390771F881F91505040A9F79E3F510580F058
S11313A00C9429090C9474095F3FE4F3983ED4F338
S11313B0869577956795B795F795E7959F5FC1F7FC
S11313C0FE2B880F911D9695879597F908959F9305
S11313D00E94F1090F9007FCEE5F0C941A0A0C941A
S11313E02F090E945909D8F3E894E0E0BB279F57DE
S11313F0F0F02AED3FE049EC06C0EE0FBB0F661F8C
S1131400771F881F28F0B23A62077307840728F011
S1131410B25A620B730B840BE3959A9572F780387A
S113142030F49A95BB0F661F771F881FD2F7904838
S11314300C94300AEF93E0FF07C0A2EA2AED3FE0E4
S113144049EC5FEB0E94EF070E9440090F90039460
S113145001FC9058E2E0F1E00C943C0A9F3F31F02B
S1131460915020F4879577956795B795880F911DCE
S11314709695879597F908959F938F937F936F938C
S1131480FF93EF939B01AC010E947A09EF91FF91C6
S11314900E94500A2F913F914F915F910C947A09C9
S11314A0DF93CF931F930F93FF92EF92DF927B0111
S11314B08C01689406C0DA2EEF010E948D09FE01AA
S11314C0E894A5912591359145915591A6F3EF01A5
S11314D00E94EF07FE019701A801DA9469F7DF90F3
S11314E0EF90FF900F911F91CF91DF91089597FB9B
S11314F0072E16F4009407D077FD09D00E94A00AA5
S113150007FC05D03EF4909581959F4F0895709502
S113151061957F4F0895EE0FFF1F0590F491E02D24
S11315200994A29FB001B39FC001A39F700D811DB8
S11315301124911DB29F700D811D1124911D0895D8
S1131540AA1BBB1B51E107C0AA1FBB1FA617B707E5
S113155010F0A61BB70B881F991F5A95A9F7809501
S11315609095BC01CD0108958F929F92AF92BF9246
S1131570CF92DF92EF92FF92CF93DF93EC016881D9
S113158079818A819B81611571058105910521F419
S113159064E279ED8BE597E02DE133EF41E050E033
S11315A00E94C30D49015A019B01AC01A7EAB1E4B1
S11315B00E94E20D6B017C01ACEEB4EFA501940135
S11315C00E94F00DDC01CB018C0D9D1DAE1DBF1DD5
S11315D0B7FF03C00197A109B04888839983AA8300
S11315E0BB839F77DF91CF91FF90EF90DF90CF90F7
S11315F0BF90AF909F908F9008950E94B40A089571
S113160080E091E00E94B40A0895A0E0B0E08093E5
S1131610000190930101A0930201B0930301089586
S1131620AEE0B0E0E6E1FBE00C94030E0D891E8908
S113163086E08C831A8309838FEF9FE79E838D83D3
S1131640AE01475E5F4F6F89788DCE0101960E948F
S1131650320BEF81F885E00FF11F10822E96E4E043
S11316600C941F0EABE0B0E0E8E3FBE00C94F50D46
S11316706C017B018A01FC0117821682838181FF40
S1131680CCC1CE0101963C01F6019381F70193FD93
S1131690859193FF81917F01882309F4BAC1853232
S11316A039F493FD859193FF81917F01853229F46B
S11316B0B60190E00E94290DE7CF912C212C312C0A
S11316C0FFE1F315D8F08B3279F038F4803279F0F9
S11316D08332A1F4232D20611DC08D3261F080334B
S11316E069F4232D216016C0832D8260382EE32DEA
S11316F0E4603E2E2AC0F32DF8601DC037FC2DC0D7
S113170020ED280F2A3040F08E32B9F436FC81C126
S1131710232D2064322E19C036FE06C08AE0989E1E
S1131720200D1124922E11C0EAE02E9E200D1124CA
S1131730222EF32DF0623F2E08C08C3621F4832D27
S11317408068382E02C0883641F4F70193FD8591F4
S113175093FF81917F018111B3CF982F9F7D955481
S1131760933028F40C5F1F4F9FE399830DC0833699
S113177031F0833771F0833509F059C021C0F80185
S1131780808189830E5F1F4F88248394912C530199
S113179013C02801F2E04F0E511CF801A080B18063
S11317A036FE03C0692D70E002C06FEF7FEFC50104
S11317B00E941E0D4C018201F32DFF773F2E16C0AF
S11317C0280122E0420E511CF801A080B18036FEAF
S11317D003C0692D70E002C06FEF7FEFC5010E9466
S11317E0130D4C01F32DF0683F2E820133FC1BC016
S11317F0822D90E088169906B0F4B60180E290E05C
S11318000E94290D2A94F4CFF50137FC859137FE07
S113181081915F01B60190E00E94290D21102A9464
S113182021E0821A91088114910471F7E8C084368A
S113183011F0893641F5F80137FE07C060817181E6
S1131840828193810C5F1F4F08C060817181072ED4
S1131850000C880B990B0E5F1F4FF32DFF763F2E64
S113186097FF09C090958095709561957F4F8F4F34
S11318709F4FF0683F2E2AE030E0A3010E94650DDF
S1131880882E861845C0853731F4232D2F7EB22E3D
S11318902AE030E025C0932D997FB92E8F36C1F010
S11318A018F4883579F0B5C0803719F0883721F0FD
S11318B0B0C0E92FE061BE2EB4FE0DC0FB2DF46074
S11318C0BF2E09C034FE0AC0292F2660B22E06C0DE
S11318D028E030E005C020E130E002C020E132E041
S11318E0F801B7FE07C060817181828193810C5F2A
S11318F01F4F06C06081718180E090E00E5F1F4F32
S1131900A3010E94650D882E8618FB2DFF773F2EBC
S113191036FE0DC0232D2E7FA22E891458F434FEDA
S11319200BC032FC09C0832D8E7EA82E05C0B82CB6
S1131930A32C03C0B82C01C0B92CA4FE0FC0FE0117
S1131940E80DF11D8081803321F49A2D997EA92E12
S113195009C0A2FE06C0B394B39404C08A2D86784D
S113196009F0B394A3FC11C0A0FE06C0B21488F41D
S1131970280C922C9B180EC0B21460F4B60180E2BD
S113198090E00E94290DB394F7CFB21418F42B18E9
S113199002C0982C212CA4FE10C0B60180E390E074
S11319A00E94290DA2FE17C0A1FC03C088E790E0A5
S11319B002C088E590E0B6010CC08A2D867859F003
S11319C0A1FE02C08BE201C080E2A7FC8DE2B60159
S11319D090E00E94290D891438F4B60180E390E068
S11319E00E94290D9A94F7CF8A94F301E80DF11D12
S11319F08081B60190E00E94290D8110F5CF22204C
S1131A0009F442CEB60180E290E00E94290D2A94A6
S1131A10F6CFF6018681978102C08FEF9FEF2B9658
S1131A20E2E10C94110EFC0105906150704001102C
S1131A30D8F7809590958E0F9F1F0895FC016150F3
S1131A40704001900110D8F7809590958E0F9F1FDC
S1131A5008950F931F93CF93DF93FB01238121FDFF
S1131A6003C08FEF9FEF2CC022FF16C04681578121
S1131A70248135814217530744F4A081B1819D012B
S1131A802F5F3F4F318320838C93268137812F5FD3
S1131A903F4F3783268314C08B01EC01FB01008484
S1131AA0F185E02D0995892BE1F6D80116968D91E3
S1131AB09C911797019617969C938E931697CE0137
S1131AC0DF91CF911F910F910895FA01AA27283031
S1131AD051F1203181F1E8946F936E7F6E5F7F4FF7
S1131AE08F4F9F4FAF4FB1E03ED0B4E03CD0670F73
S1131AF0781F891F9A1FA11D680F791F8A1F911DC6
S1131B00A11D6A0F711D811D911DA11D20D009F415
S1131B1068943F912AE0269F11243019305D319357
S1131B20DEF6CF010895462F4770405D4193B3E040
S1131B300FD0C9F7F6CF462F4F70405D4A3318F0E7
S1131B40495D31FD4052419302D0A9F7EACFB4E098
S1131B50A6959795879577956795BA95C9F7009750
S1131B606105710508959B01AC010A2E06945795F1
S1131B70479537952795BA95C9F7620F731F841F48
S1131B80951FA01D0895052E97FB1EF400940E9436
S1131B90DA0D57FD07D00E942C0E07FC03D04EF43B
S1131BA00C94DA0D50954095309521953F4F4F4F49
S1131BB05F4F089590958095709561957F4F8F4FF5
S1131BC09F4F08950E94910AA59F900DB49F900D78
S1131BD0A49F800D911D11240895B7FF0C94E20D6C
S1131BE00E94E20D821B930B08952F923F924F9215
S1131BF05F926F927F928F929F92AF92BF92CF9299
S1131C00DF92EF92FF920F931F93CF93DF93CDB7A1
S1131C10DEB7CA1BDB0B0FB6F894DEBF0FBECDBF19
S1131C2009942A88398848885F846E847D848C84EA
S1131C309B84AA84B984C884DF80EE80FD800C81F3
S1131C401B81AA81B981CE0FD11D0FB6F894DEBFD6
S1131C500FBECDBFED010895A1E21A2EAA1BBB1B36
S1131C60FD010DC0AA1FBB1FEE1FFF1FA217B30764
S1131C70E407F50720F0A21BB30BE40BF50B661F7A
S1131C80771F881F991F1A9469F76095709580953E
S1131C9090959B01AC01BD01CF010895F894FFCF4D
S1131CA00100000001000100FDFDFDFD00EF04EE58
S1131CB0041BFEFEFEFE90EF044A1F7F04EE064363
S1131CC090EF83090008AF0B000A00050006000727
S1131CD000EF0CEE90EF8000B0EF024900EF017FBF
S1131CE081E102E276E283E1018090EF000008EFF7
S1131CF000180012001500130016001C1F03E2E078
S1131D00FF596F75722073636F72653A2025640002
S1131D104869676873636F72653A20256400476198
S1131D206D65204F76657200000000000000000021
S1131D30040E0E04040004001B1B1200000000002B
S1131D40000A1F0A0A1F0A00080E100C021C0400D5
S1131D5019190204081313000814140815120D00AD
S1131D600C0C08000000000004080808080804001F
S1131D700804040404040800000A0E1F0E0A0000EC
S1131D800004041F0404000000000000000C0C0800
S1131D900000001F0000000000000000000C0C0008
S1131DA000010204081000000E11131519110E0091
S1131DB0040C040404040E000E11010608101F0094
S1131DC00E11010E01110E0002060A121F0202007A
S1131DD01F10101E01110E000608101E11110E0016
S1131DE01F010204080808000E11110E11110E0043
S1131DF00E11110F01020C0000000C0C000C0C0061
S1131E0000000C0C000C0C0802040810080402006A
S1131E1000001F00001F0000080402010204080063
S1131E200E110106040004000E11171517100E0000
S1131E300E11111F111111001E11111E11111E007E
S1131E400E11101010110E001E11111111111E008F
S1131E501F10101E10101F001F10101E1010100055
S1131E600E11101711110F001111111F1111110072
S1131E700E04040404040E000101010111110E00FA
S1131E8011121418141211001010101010101F0049
S1131E90111B151111111100111915131111110034
S1131EA00E11111111110E001E11111E101010002F
S1131EB00E11111115120D001E11111E1211110017
S1131EC00E11100E01110E001F040404040404007A
S1131ED01111111111110E0011111111110A040027
S1131EE01111151515150A0011110A040A11110012
S1131EF01111110A040404001E02040810101E002B
S1131F000E08080808080E0000100804020100006A
S1131F100E02020202020E00040A11000000000078
S1131F20000000000000001F0C0C04000000000072
S1131F3000000E010F110F0010101E1111111E00D0
S1131F4000000E1110110E0001010F1111110F00EC
S1131F5000000E111F100E000608081E08080800D5
S1131F6000000F11110F010E10101C12121212009A
S1131F700400040404040400020006020202120C19
S1131F8010101214181412000404040404040600AB
S1131F9000001A151511110000001C121212120073
S1131FA000000E1111110E0000001E1111111E105F
S1131FB000000F1111110F010000160908081C0080
S1131FC000000E100E010E0000081E08080A04008E
S1131FD00000121212160A0000001111110A040066
S1131FE000001111151F0A00000012120C12120039
S1131FF000001212120E041800001E020C101E0023
S1132000060808180808060004040404040404006C
S11320100C02020302020C00000000000000000099
S11320200A000E010F110F000A000E1111110E000B
S11320300A00121212160A000A0E111F11111100C1
S11320400A0E111111110E000A11111111110E00B5
S11320500C12121C12121C100609090600000000C2
S10F206053435245454E5341564552002F
S9030000FC
